:020000040800F2
:1000000088280020010300083F030008410300087E
:1000100043030008450300084703000800000000F0
:10002000000000000000000000000000490300087C
:100030004B030008000000004D030008611B00088E
:100040005103000851030008510300085103000840
:100050005103000851030008510300085103000830
:100060005103000851030008510300085103000820
:100070005103000851030008CD1500085103000882
:1000800051030008E115000851030008510300085E
:1000900051030008510300085103000851030008F0
:1000A00051030008510300085103000851030008E0
:1000B00051030008510300085103000851030008D0
:1000C00051030008510300085103000851030008C0
:1000D00051030008151F0008751F00085103000890
:1000E00051030008510300085103000851030008A0
:1000F0005103000851030008510300085103000890
:10010000510300085103000851030008510300087F
:10011000510300085103000851030008510300086F
:10012000510300085103000851030008510300085F
:10013000510300085103000851030008510300084F
:10014000510300085103000851030008510300083F
:10015000510300085103000851030008510300082F
:10016000510300085103000851030008510300081F
:10017000510300085103000851030008000000006B
:10018000510300085103000800F002F800F0A8F83D
:1001900014A696E8000CB244B344DA4501D100F04D
:1001A0009FF8BAE80F000FA696E83000A5EB04050B
:1001B00004EB0607AAEB0704A7F101074FEA1515A0
:1001C0004FEA3414A4F10104AC4201D300F088F8E2
:1001D00013F0010F18BFFB1A43F0010300F001F800
:1001E000DBE718477C3500009C350000103A24BF3F
:1001F00078C878C1FAD8520724BF30C830C144BF8C
:1002000004680C6070470000704700000023002461
:1002100000250026103A28BF78C1FBD8520728BF16
:1002200030C148BF0B6070476E2900F00982702909
:1002300000F04F83662903F08F81652903F08C81DC
:10024000672903F08981612903F0888103681B0A0B
:1002500028BF41F08001692900F0B681642900F0CF
:10026000B381752900F0B0816F2900F0DD82782913
:1002700000F01B83E92900F07782E42900F0748202
:10028000F52900F07182EF2900F0DA82F82900F0F8
:100290001A830368DB0928BF41F08001632901F05C
:1002A0005680732901F05B80E32901F06680F32911
:1002B00001F06B80002070471FB503F040F901F09A
:1002C000B9F804000020002102F0B2FE401C60607A
:1002D0000020002102F096FEE0601FBD10B510BDA9
:1002E00001F07BF81146FFF7E7FF01F089FF01F00D
:1002F00057F903B4FFF7F2FF03BC01F05FF9000008
:1003000017481849184B99423CBF50F8042B41F844
:10031000042BF8D3154B16494FF000028B4238BF1F
:1003200043F8042BFAD3DFF84C00016841F4700164
:100330000160BFF34F8FBFF36F8F0F480047FEE799
:10034000FEE7FEE7FEE7FEE7FEE7FEE7FEE7FEE785
:10035000FEE7000009480A490A4A0B4B70470000B3
:10036000B03800080000002008000020080000202D
:100370008828002088ED00E08901000888220020FC
:100380008828002088240020882400200FB41CB571
:10039000084B06AA7B4469460090059800F069F96D
:1003A00004460020694600F077F920461CBC5DF841
:1003B00014FB00000103000010B5431C02E010F81C
:1003C000011B71B18107FAD14FF0013202C88C1ABA
:1003D0008C4314EAC211F9D0C01A0A0603D0C01E19
:1003E00010BDC01A10BD0A0401D0801E10BD090244
:1003F000FCD0401E10BD032A40F2308010F0030CE8
:1004000000F0158011F8013BBCF1020F624498BF67
:1004100011F801CB00F8013B38BF11F8013BA2F104
:10042000040298BF00F801CB38BF00F8013B11F07F
:10043000030300F02083083AC0F0088051F8043B21
:10044000083A51F804CBA0E80810F5E7121D5CBF8C
:1004500051F8043B40F8043BAFF30080D20724BFBF
:1004600011F8013B11F801CB48BF11F8012B24BF53
:1004700000F8013B00F801CB48BF00F8012B7047A2
:1004800030B44FF0013C50F8042B51F8043BCCFA47
:1004900052F4D51A20D1FCB950F8042B51F8043B82
:1004A000CCFA52F4D51A17D1B4B950F8042B51F83C
:1004B000043BCCFA52F4D51A0ED16CB950F8042B87
:1004C00051F8043BCCFA52F4D51A05D1002CDAD0FD
:1004D00030BC4FF00000704729BAB1FA81F111F039
:1004E0001801D1F120008440F2D1CA40CB4012F073
:1004F000FF0213F0FF0330BCD01A704770477047FB
:10050000704770B5044685690068C10601D530267C
:1005100000E02026C00707D070BDD4E90121304695
:100520009047206A401C20626D1EF6D570BD70B5E4
:10053000044685690078C00707D170BDD4E9012160
:1005400020209047206A401C20626D1EF6D570BDA9
:1005500009684A0501D540B27047C905FCD500B20B
:10056000704709684A0501D5C0B27047C905FCD576
:1005700080B2704770B50C460546012A05D0287830
:10058000800600D5EA69002302E0012305E05B1C38
:10059000934202D2E05C0028F9D1A869E618C01A9B
:1005A000A861286A184428622846FFF7AAFF04E0D9
:1005B000D5E9012114F8010B9047B442F8D328463D
:1005C000FFF7B5FF70BD00002DE9F041064600249D
:1005D00010687529314616A510D0FFF7B9FF00281D
:1005E00002DA404213A507E031688A0701D512A557
:1005F00002E0490704D511A5012401E0FFF7B1FF8E
:1006000000210A2206F1240709E0B0FBF2FCB0FB4E
:10061000F2F302FB1C00303078541846491C0028C5
:10062000F3D123462A463046BDE8F04100F09ABA9D
:10063000000000002D0000002B0000002000000042
:1006400011680268006A530501D508700AE0D305F5
:1006500001D5088006E0130603D5C217C1E90002E0
:1006600000E008600120704701694A1C02610878B7
:10067000704700B58FB0CDE90131002105910549E2
:100680007944CDE903101146684600F02DF90FB00A
:1006900000BD0000E5FFFFFF0A6802F8010B0A60D9
:1006A000704700002DE9FF5F15468A460446DFF8D3
:1006B000AC80F8440027D8E900103E46CDE9001090
:1006C00010E03AF816106A4602A800F062FE411CDB
:1006D00007D02178890603D5E269391891420DD8EF
:1006E0000744761C2078800602D5E069B84205DD13
:1006F000AE42E6DB3AF816000028E2D1A069C01B42
:10070000A0612046FFF7FDFED8E90010CDE90010FA
:10071000002017E03AF818106A4602A800F039FEE7
:10072000B0F1FF3F81460BD000250DF1080B05E02D
:10073000D4E901211BF8050090476D1C4D45F7D306
:1007400008F10100B0428046E4DB206A38442062B0
:100750002046FFF7ECFE00F003B80000AA2E0000D0
:100760003FBCBDE8C09F00002DE9F0418046D21D8E
:1007700022F007020025D2E90002F52915A614D0BF
:10078000011E72F1000106DA0023D0EB030063EBD7
:10079000020211A608E0D8F800108B0701D50FA6B9
:1007A00002E0490701D50EA601251146002408F1F3
:1007B000240704E000F091F930323A55641C50EA05
:1007C0000102F7D12B46324621464046BDE8F041B2
:1007D00000F0C8B9000000002D0000002B00000050
:1007E0002000000030B4002100F1240408E002F0F1
:1007F0000705D208303542EA4372DB086554491CCC
:1008000052EA0305F3D10468002310A2250708D596
:1008100004F020040C4304D0C46901230CA2641E1C
:10082000C46130BC00F09EB910B504462146106882
:10083000FFF797FE02462046BDE810400023D1E7AF
:10084000D21D22F00701D1E90023CBE70000000010
:1008500030000000F0B40D460188090502D5214C96
:100860007C4402E01F4C7C440E34002100F124063D
:1008700008E002F00F071209E75D42EA03721B0964
:100880007754491C52EA0307F3D102780023120778
:1008900004D5702D06D009B1022311342246F0BCD4
:1008A00000F060B901231034F8E770B504460D4636
:1008B00021461068FFF755FE024629462046BDE84E
:1008C00070400023C6E7D21D22F00703D3E90023BE
:1008D000C0E70368126843F0200303600823C36184
:1008E0000023B7E7042D00002DE9F05F8946044698
:1008F0004FF0000ADFF874B1FB44C0F820A0204696
:10090000E1688847002874D0252806D0D4E9012161
:100910009047206A401C2062F1E700265F4620468F
:10092000E16888472028054607DB312D05D2781974
:1009300010F8200C08B10643F1E7B00701D526F006
:100940000406C4F81CA00027C4F818A02A2D09D05A
:10095000284602F04FFB38B304EB8708303DC8F857
:10096000185019E059F8041B204604EB87029161E6
:10097000E1688847012F054618D1E069002820DA90
:1009800026F020061DE0D8F8180000EB800005EBEB
:1009900040003038C8F818002046E168884705460E
:1009A00002F028FB0028EED1012F0AD02E2D08D10D
:1009B0002046E16888477F1C0546022F46F0200646
:1009C000C4DBA069002803DA404246F00106A061BA
:1009D000F00701D026F010066C2D0BD0682D09D041
:1009E0004C2D39D06A2D35D0742D35D07A2D33D099
:1009F00016E038E0E1682F4620468847B8420546B1
:100A000009D16C2F26D04FF48060E1680643204660
:100A10008847054604E06C2F1AD04FF480700643D7
:100A20000DB3A5F14100192802D8203546F400661F
:100A30004A462946204626604E46FFF7F5FB80B120
:100A400001280BD0F61D26F0070000F1080956E733
:100A50004020E4E78020D8E70020D6E706F104092B
:100A60004DE7284652E7206A00F002B8942C0000B7
:100A700030BCBDE8C09F10B5203AC0F00B80B1E893
:100A80001850A0E81850B1E81850A0E81850203AC3
:100A9000BFF4F5AF5FEA027C24BFB1E81850A0E8CC
:100AA000185044BF18C918C0BDE810405FEA827CE6
:100AB00024BF51F8043B40F8043B08BF7047D207FD
:100AC00028BF31F8023B48BF11F8012B28BF20F89E
:100AD000023B48BF00F8012B704730B5B0F10A0265
:100AE00071F100034FEA900E4EEA817EB0EB0E00EA
:100AF00061EB91014FEA101E4EEA017E10EB0E00F1
:100B000041EB11114FEA102E4EEA016E10EB0E0070
:100B100041EB11214FEA104E4EEA014E10EB0E0050
:100B200041EB1141401841F100014FEAD00040EA89
:100B300041704FEAD1014FEA810444EA907410EB0E
:100B4000800544EB01046D1944EB0404521BA341DE
:100B50004FF0000348BF0A3200D530BD401C41F1C0
:100B6000000130BD2DE9F0470D46994692460446F6
:100B700000F124080168880604D5E06921F010011D
:100B8000216000E00120A84201DD471B00E00027B2
:100B9000A1697A1902EB0900081AA0612078C00641
:100BA00002D42046FFF7ADFC002608E0D4E901217D
:100BB0001AF806009047206A401C761C20624E45B9
:100BC000F4DB2078C0060AD52046FFF79AFC06E041
:100BD000D4E9012130209047206A401C2062381E51
:100BE000A7F10107F4DC07E0D4E9012118F80500BA
:100BF0009047206A401C2062281EA5F10105F3DC05
:100C00002046FFF794FC2078000602D50220BDE8BC
:100C1000F0870120FBE72DE9FF4F0C461E464FF001
:100C2000FF378BB0D2E90001DDF860800A908A4678
:100C3000C1F30A5505B93D46002108464FF00000B2
:100C4000BAF1000F00F4400005DA00EB80004FF429
:100C5000400101EA50004FEA9059B9F1010F00DD5F
:100C6000B9460A9850EA4A000ED044F61050A5F250
:100C7000FF3545432F14B8F1000F1ED07542291ED1
:100C80001EDDC9F100021CE0B8F1010F4FF00000B9
:100C900001D0302103E0F24305E02154401CB04272
:100CA000FBDB30460022002121540B99C1F808805B
:100CB000C1E900200FB000F0BCB9BD1B6D1CDEE720
:100CC0004A4600DA694206A800F0F8FB06AB93E852
:100CD000070003AB83E8070050460A9901F0AAFD1C
:100CE0008DE80700A0F500501F3800900398002DF4
:100CF0000ADD42F21F014A460844002303A903907B
:100D0000684602F013F809E0A0F500504A461F3883
:100D1000002303A90390684602F01DF88DE8070040
:100D20000004000C03D04FF0FF30410800E01046F3
:100D3000B8F1000F03D00022009215461EE0751E88
:100D400005D4FFF7CAFE303262556D1EF9D5B346A1
:100D50000122084302D000227F1C04E020783028C2
:100D600001D100227F1E002A099784D01DE0112D99
:100D700007DAFFF7B2FE303262556D1C50EA01020D
:100D8000F5D1084302D00098C8B10EE00021681EDA
:100D900005E0235C625C63542254401E491C81427E
:100DA000F7DBAB46A81B401E0990002004F80B009F
:100DB0000B98099AC0F80880C0E9002B7AE7112641
:100DC0004FF0000857E72DE9F04F88460446D21D42
:100DD00022F0070191B0D1E90001CDE90A0102F04A
:100DE000F1F802460B98C00F01D02D2007E02068D3
:100DF000810701D52B2002E0202101EAC000032A4F
:100E0000099001D0072A05DB03464146204600F041
:100E100015FB0BE12078800601D5E06900E0062093
:100E2000B8F1650F814606D0B8F1660F18D0B8F159
:100E3000670F70D131E00020B9F1110F009001DB94
:100E4000112301E009F101030AAA01A90CA8FFF787
:100E5000E2FEDDE90C70002609F10105834647E05A
:100E600001204B4600904FF000470AAA01A90CA8A8
:100E7000FFF7D1FEDDE90DB00C995D46002610B9F3
:100E800009F101000D18B9EB050003D4C0F1FF36DC
:100E900009F10105A5EB09002BE0B9F1010F01DA19
:100EA0004FF001090020B9F1110F0090484601DD13
:100EB000112300E003460AAA01A90CA8FFF7ABFE24
:100EC000DDE90C704D4600268346207800070AD4E1
:100ED000AB4500DA5D4601A8012D04DD411911F88A
:100EE000011C302907D04F4502DA17F1040F04DA4C
:100EF000012082460FE06D1EEEE7002F02DCED1BA5
:100F00003E4403E0781CA84200DD7D1CB81B00F1C4
:100F1000010A4FF000472078000703D4AA4501DBFF
:100F20004FF0FF3A0021B7F1004F0DF143088DF863
:100F3000431024D002202B23002F01DA7F422D23DF
:100F40000A21021EA0F1010000DC5FB197FBF1FC59
:100F500097FBF1F201FB1C7C17460CF1300C08F8F2
:100F600001CDEEE7A8F1010003702188090501D544
:100F7000452100E06521A0F1010800F8011C099855
:100F80000FA9A1EB0807FF1D00B10120411901EBDA
:100F9000EA70A1693844081A401EA0612078C00692
:100FA00002D42046FFF7ADFA099828B1D4E901210F
:100FB0009047206A401C20622078C00622D5204637
:100FC000FFF79FFA1EE0002E04DBB34502DD01A807
:100FD000805D00E03020D4E901219047206A401C68
:100FE0002062761CAAF101005FEA000A0AD100F033
:100FF00021FAC0680168405CD4E901219047206A69
:10100000401C2062281EA5F10105DCDC07E0D4E9C4
:10101000012118F8010B9047206A401C2062381EFD
:10102000A7F10107F3DC2046FFF781FA032011B096
:1010300041E630BCBDE8C08F2DE9F04F04460D46B7
:10104000D21D22F0070089B0D0E900974846394602
:1010500001F0B8FF0246F80F01D02D2307E0206809
:10106000810701D52B2302E0202101EAC0038DF87E
:1010700020300BB1012000E00020032A824601D07D
:10108000072A04DB2946204600F0D8F93FE1207802
:10109000800601D40D2500E0E569C7F30A560D2D41
:1010A00049DA00214FEA175B08464FF00000002F95
:1010B00000F4400007DA00EB80004FF4400100EB41
:1010C000D07001EA60008115012901DD4FF0FF3188
:1010D00000224FEA850CBCF1180F06D31346ACF181
:1010E00018004FF08052C24003E04FF4801323FAFF
:1010F0000CF30CF10C0CBCF1200F04D3ACF1200C60
:1011000009FA0CF001E007FA0CF000294FF0004852
:1011100001DD18B90FE00ED140450CD319EB0209DF
:101120005F4121B9404502D19F4329EA0209BBEB47
:10113000175F00D0761C2088000502D57B487844D4
:1011400002E07A487844193808AA302302F80A30B5
:10115000037C0AF10101002E0AF1020A53546A4687
:1011600002DC4FF0300101E04FF031014FF0010897
:101170008DF8001002D0A6F2FF3603E059EA4701CD
:1011800000D06B4E002D02DC2178090704D54FF00A
:1011900002082E218DF80110C44600210BE0C7F390
:1011A00003433F01C35C491C6D1E02F8083005294A
:1011B00008F1010801DA002DF1DC00210CE000EB60
:1011C0001973491C1B786D1E082902F808304FEA74
:1011D000091908F1010801DA002DF0DC21688B06FD
:1011E00002D516E0A8F10108E04505DD02EB080391
:1011F00013F8013C302BF5D0B8F1000F09DD02EBFC
:10120000080313F8013C2E2B03D1090701D4A8F1E0
:101210000108002D05DD3E2102F808106D1E08F1C1
:101220000108407C002E02F8080008F1010804DAE9
:101230002D20764202F8080002E02B2002F8080078
:101240000A214FF47A70864208F101080BDB96FB05
:10125000F0F3303302F8083096FBF0F308F10108A0
:1012600000FB136601E0642E0CDB642096FBF0F3B8
:10127000303302F8083096FBF0F308F1010800FB68
:10128000136601E00A2E06DB96FBF1F0303002F81F
:10129000080008F1010896FBF1F001FB1060303006
:1012A00002F80800A16908F1010808EB050202EB49
:1012B0000A00081AA0612078C00602D42046FFF771
:1012C00020F9216A08AE01EB0A00206204E0D4E9AB
:1012D000012116F8010B9047BAF1010AF7D22078E4
:1012E000C00602D52046FFF70CF96E4609E016F855
:1012F000010B3E280FD0D4E901219047206A401C01
:101300002062B8F10108F2D22046FFF710F909B0C7
:10131000032000F00FB8206A2844206203E0D4E9DB
:101320000121302090476D1EEBD3F8E772240000B6
:1013300002FCFFFF30BCBDE8C08F10B5436913B19C
:10134000AFF3008001E0FFF715F9012010BD12781E
:1013500000F124010A7000224A700122EDE71168B1
:101360004FF0FF32E9E710B5436913B1AFF30080E6
:1013700001E0FFF797F9012010BD128800F1240168
:1013800082840022C2840122EDE711684FF0FF320F
:10139000E9E72DE9F04116460C46054600F042F813
:1013A000036893F80101012807D0FF2C12D8185DBB
:1013B00080B101202C70BDE8F081D3F807013246DE
:1013C000214603F20713C7182846BC46BDE8F04182
:1013D000002360474FF0FF30EDE7754600F0EAF874
:1013E000AE4605006946534620F00700854618B012
:1013F00020B5FEF7AFFFBDE820404FF000064FF0EC
:1014000000074FF000084FF0000BAC46ACE8C009F5
:10141000ACE8C009ACE8C009ACE8C00921F007019C
:101420008D46704710B500F005F8001D10BD00BFD7
:10143000011C000000487047280000202DE9F04101
:101440001F46044603260168072A01F4006004DBF6
:1014500008B116A505E016A503E008B115A500E042
:1014600015A521F010002060A069C01EA0610FB179
:10147000401EA0612046FFF744F84FB1D4E9012196
:1014800038469047206A401C2062C01C206206E05B
:10149000206AFAE7D4E9012115F8010B9047761E7E
:1014A000F8D22046FFF743F8BDE8F0814E414E00E8
:1014B0006E616E00494E4600696E66002DE9F04788
:1014C000814616468AB0354878440DC88DE80D002F
:1014D00032487844801C03AC0DC884E80D0041F606
:1014E0009B300844372190FBF1F290FBF1F5A5F118
:1014F000800501FB12041B3C02D56442012000E080
:101500000020DFF898A080460027FA44AAF1BE0A1E
:101510000EE0E0070AD03246684607EB4701012398
:101520000AEB810101F017FC8DE8070064107F1CB5
:10153000002CEED1194F7F44AE3F19E0E80715D0DB
:1015400007EB04100DF1180A90E80E008AE80E006F
:10155000C068F04201D1981908903246012306A9CB
:1015600003A801F0F8FB03AB83E807006D10641CCF
:10157000002DE3D14FF0010332466946B8F1000F68
:1015800003A802D001F0D2FB01E001F0E4FBC9E9BD
:101590000001C9F808200AB0BDE8F08778210000F2
:1015A00010B50446AFF300802046BDE81040FEF7BA
:1015B000A0BE000000487047080000200149182024
:1015C000ABBEFEE7260002007047000080B5442055
:1015D000C4F202004FF4805100F094FD80BD000081
:1015E00080B58020C4F202004FF0807100F08AFDC7
:1015F00080BD000080B584B00390029141F24801A3
:10160000C4F20201086840F001000860039900205C
:1016100008600399086842F2920210430860029839
:10162000283003998860029943F60002C4F201024F
:101630000220914208BF01200190039800F038FD7C
:101640000090009881000F2000FA01F2A821C4F256
:1016500002010868904308600198009A920000FA1D
:1016600002F208681043086003984421C4F20201A2
:10167000884204D1FFE70E2000F09CFC03E011201B
:1016800000F098FCFFE704B080BD000041F24C017F
:10169000C4F20201086840F00200086040F2004114
:1016A000C4F60001086820F470200860086840F45F
:1016B0002020086040F20441C4F60001086840F4AC
:1016C0004070086040F20841C4F60001086840F428
:1016D0007020086040F20C41C4F60001086820F454
:1016E00070200860086840F4A020086040F224419F
:1016F000C4F60001086820F0FF000860086840F0A8
:10170000440008607047000081B05220009041F210
:101710005801C4F20201086840F40010086041F268
:101720008801C4F20201086820F44050086008688B
:1017300040F48050086041F23801C4F202010868A8
:1017400040F400100860086820F40010086045F2BA
:101750000041C4F20001086820F001000860086838
:1017600040F080000860086820F480500860086835
:1017700020F400300860086820F47060086045F2CA
:101780000442C4F20002106840F00070106010685B
:1017900040F40040106045F21042C4F2000242F2F0
:1017A0002E70C7F29C00106045F20842C4F200029D
:1017B000106820F400401060106820F48060106011
:1017C000106820F07F00009B03F07F0340EA430095
:1017D0001060106840F400401060086840F001009C
:1017E000086001B07047000080B586B004908DF8A5
:1017F0000F1002928DF807309DF80700012803DBD7
:10180000FFE7029820B9FFE7FF208DF8170034E0CA
:10181000049800F07FF804989DF80F109DF80720B9
:10182000012300F02FF800200090FFE700989DF8BA
:101830000710884212DAFFE7FFE704988069400743
:10184000002801D4FFE7F8E70498406A0299009A5B
:101850008854FFE7009801300090E7E7FFE704981D
:1018600080694006002801D4FFE7F8E7049800F0FB
:101870003FF800208DF81700FFE79DF9170006B02C
:1018800080BD000084B0039002918DF807208DF890
:10189000063000200090039840680090009849F6B8
:1018A0000001CFF60041084000909DF80600012895
:1018B00005D1FFE7009840F48060009004E00098B4
:1018C00020F480600090FFE702986FF39F209DF85E
:1018D000071040EA0141009808430090009840F446
:1018E00000500090009803994860002004B07047B1
:1018F00081B000900099486840F480404860FFE75C
:10190000009880698006002801D4FFE7F8E701B05D
:101910007047000081B00090FFE7009880690004E4
:10192000002801D5FFE7F8E701B0704741F24C010C
:10193000C4F20201086840F001000860086840F045
:10194000040008604FF09041086820F4406008608F
:10195000086840F4806008600421C4F6000108684B
:1019600020F0200008600C21C4F60001086820F473
:1019700040600860704700001421C4F60001086848
:1019800080F020000860704741F24C01C4F202016F
:10199000086840F00400086040F60001C4F6000149
:1019A00008684CF2FF32CFF6F07210400860086809
:1019B00041F20043C0F205031843086040F60401F9
:1019C000C4F60001086820F45870086040F6080169
:1019D000C4F60001086810400860086842F6000379
:1019E000C0F20A031843086040F60C01C4F6000177
:1019F00008681040086040F61401C4F60001086849
:101A000020F458700860704741F24C01C4F20201A2
:101A1000086840F0030008604FF09041086820F427
:101A200040700860086840F4007008602021C4F627
:101A30000001086820F470200860086840F4A020C5
:101A4000086040F20041C4F60001086820F47C60A0
:101A50000860086840F42860086040F22041C4F63D
:101A6000000108686FF317300860086845F200024B
:101A7000C0F25502104308600821C4F6000108684E
:101A800040F44070086040F20841C4F60001086864
:101A900040F47C600860704741F26001C4F20201CA
:101AA000086840F48050086041F24001C4F202012D
:101AB000086840F480500860086820F4805008608E
:101AC00043F20001C4F20101086820F04000086000
:101AD000002008600A6842F027020A6043F204020C
:101AE000C4F201021060106840F60C7318431060D5
:101AF000086840F0400008607047000081B0ADF811
:101B00000200FFE743F20800C4F20100006880070A
:101B1000002801D4FFE7F5E7BDF8020043F20C010D
:101B2000C4F201010880FFE743F20800C4F201009B
:101B300000680006002801D5FFE7F5E7FFE743F25C
:101B40000800C4F201000068C00708B9FFE7F6E723
:101B500043F20C00C4F20100008801B0704700009D
:101B600080B542F27C21C2F20001086801300860B1
:101B7000022809D3FFE742F27C21C2F200010020D3
:101B8000086000F089FDFFE780BD000080B582B0ED
:101B90004EF21001CEF20001002008604EF2140354
:101BA000CEF2000343F67F02C0F201021A604EF249
:101BB0001802CEF200021060086840F002000860CF
:101BC000086840F001000860086840F00400086000
:101BD0004FF0FF30019000F0D5F90198012100F09D
:101BE00019FA02B080BD000083B042F20001C4F2D5
:101BF0000201086820F007000860086840F0020051
:101C0000086041F20001C4F20201086840F48070EB
:101C10000860FFE741F20000C4F2020000684005DE
:101C2000002801D4FFE7F5E71020029041F20401FB
:101C3000C4F20201086820F0F8500860029A0868AF
:101C400040EA0260086041F20001C4F20201086843
:101C500020F080700860FFE741F20000C4F202004B
:101C600000688001002801D5FFE7F5E741F20C018B
:101C7000C4F202010191086820F0030008600868BE
:101C800040F0020008600868142262F30E20086029
:101C90000868012262F306100860086820F0C0603E
:101CA0000860086840F08070086041F20001C4F2EA
:101CB0000201086840F080700860FFE741F2000010
:101CC000C4F2020000688001002801D4FFE7F5E7B4
:101CD00041F20801C4F20201086820F00300086024
:101CE000086840F003000860FFE741F20800C4F212
:101CF0000200006800F00C000C2801D0FFE7F4E7B8
:101D000041F20801C4F20201086820F0F000086006
:101D1000086820F4E0600860086820F460500860FB
:101D200041F20001C4F20201086820F080600860FE
:101D3000FFE741F20000C4F2020000684001002801
:101D400001D5FFE7F5E741F21001C4F2020100916D
:101D5000086820F4FE400860086840F4C05008603D
:101D6000086840F400300860086840F4803008607B
:101D700041F20001C4F20201086840F0806008608E
:101D8000FFE741F20000C4F20200006840010028B1
:101D900001D4FFE7F5E741F28801C4F202010868C7
:101DA00020F44000086041F26001C4F202010868BA
:101DB00040F40010086003B07047000080B582B0A6
:101DC00041F25801C4F20201086840F40030086092
:101DD00000F0A8F844F20040C4F20000019000F0C6
:101DE000EDFC019942F28020C2F200008022C4F290
:101DF0000202026042F28422C2F200021160006814
:101E0000FFF7F8FB262000F0EDF802B080BD0000DF
:101E100080B582B001900091019843F25171C0F6F3
:101E20000001FEF72DFB48B1FFE7019843F2567120
:101E3000C0F60001FEF724FB80B9FFE743F2FC6027
:101E4000C0F6000000F05AF800F088F940F2700186
:101E5000C2F200014FF47A6008604CE0019843F24E
:101E60004B71C0F60001FEF70BFB48B1FFE701988C
:101E700043F24971C0F60001FEF702FB80B9FFE7AB
:101E800043F21470C0F6000000F038F800F054F986
:101E900040F27001C2F200014FF47A60086029E05C
:101EA000019843F25871C0F60001FEF7E9FA48B113
:101EB000FFE7019843F25D71C0F60001FEF7E0FA1A
:101EC00080B9FFE743F2D060C0F6000000F016F8DA
:101ED00000F03EF940F27001C2F200014FF47A6066
:101EE000086006E043F2E060C0F6000000F006F88B
:101EF000FFE7FFE7FFE702B080BD000080B582B0DA
:101F0000019072B6019800F0FBFA00F045F962B654
:101F100002B080BD80B543F60000C4F2010000F0BD
:101F200063FC80BD41F24C01C4F20201086840F03C
:101F3000010008604FF09041086820F0F000086050
:101F4000086840F0A00008602021C4F6000108687D
:101F500040F4EE4008600821C4F60001086840F033
:101F6000F00008600C21C4F60001086840F0500041
:101F70000860704780B544F20040C4F2000000F0F1
:101F800033FC80BD81B08DF803009DF9030000286B
:101F90000ED4FFE79DF9031001F01F0201209040CD
:101FA0004A094EF20011CEF2000141F82200FFE78B
:101FB00001B0704781B08DF803009DF9030000283F
:101FC0000ED4FFE79DF9031001F01F02012090409D
:101FD0004A094EF20011CEF2000141F82200FFE75B
:101FE00001B0704781B08DF803009DF9030000280F
:101FF0000ED4FFE79DF9031001F01F02012090406D
:102000004A094EF20011CEF2000141F82200FFE72A
:1020100001B0704782B08DF8070000919DF907006C
:1020200000280AD4FFE7009800019DF907104EF23E
:102030000042CEF2000288540BE0009800019DF8A7
:10204000071001F00F014EF61452CEF20002885430
:10205000FFE702B07047000080B582B08DF807003E
:102060009DF80700012100F0FFF9ADF80400BDF86C
:102070000400FFF743FDADF802009DF8020002B036
:1020800080BD000080B582B08DF807008DF8061085
:102090009DF80700002100F0E7F99DF806100843BD
:1020A000ADF80400BDF80400FFF728FD02B080BDC4
:1020B00081B0009000984FF6F871CBF6FD7108449E
:1020C0004CF6CD41CCF6CC41A0FB0110000901B08B
:1020D0007047000082B0019042F27C20C2F2000002
:1020E00000680090FFE742F27C20C2F20000006826
:1020F0000099401A0199884202D2FFE730BFF2E707
:1021000002B0704782B0019000910020C4F202003A
:102110000068009910EA410F07D0FFE700984000DF
:102120000421C4F202010860FFE70199086820F069
:102130000100086002B0704780B54FF0FF3000F03A
:102140000FFB40F26B01C2F200010320087080BD5A
:1021500080B5002000F004FB80BD000080B50120A8
:1021600000F0FEFA40F26B01C2F20001022008709A
:1021700080BD000080B582B02C200A21FFF782FFCD
:10218000312008210191FFF77DFF01992D20FFF7F4
:1021900079FF02B080BD000080B582B042F280209D
:1021A000C2F2000000680068C00708B1FFE725E040
:1021B00000F06EF908B1FFE720E000F079F940F295
:1021C0000001C2F200010191086000F07DF90246B1
:1021D000019840F26801C2F200010A80026842F2EE
:1021E0008020C2F200000368DA600988026851604A
:1021F0000168086840F001000860FFE702B080BD98
:1022000080B594B0002002901390FFF7EDFCFFF72B
:10221000BBFBFFF7BBFCFFF7D1FDFFF787FBFFF729
:10222000F3FBFFF739FCFFF7A5FFFFF72FFAFFF7E6
:102230006BFA43F22C70C0F60000FFF75FFE0298C5
:1022400012901190FFE700200F900E900D900C90CF
:102250000B900A900EA80CA90AAA00F0ADF91298EA
:102260006428C0F0E380FFE70020129008A806A9C8
:1022700004AA00F0A1F940F27000C2F20000006868
:10228000012808DBFFE740F27001C2F20001086894
:1022900064380860FFE740F26B00C2F2000000788B
:1022A000022824D1FFE7049805999FED6B0B52ECAF
:1022B000103BD20F62F3DF7141EC100B51EC100BAD
:1022C0009FED670B53EC102B01F0E5F878B9FFE7B1
:1022D00040F26B01C2F2000101200870FFF738FFE5
:1022E00043F27B60C0F60000FFF708FEFFE740F214
:1022F0006B00C2F200000078032824D1FFE70698A3
:1023000007999FED550B52EC103BD20F62F3DF7132
:1023100041EC100B51EC100B9FED510B53EC102BBB
:1023200001F0B9F878B9FFE740F26B01C2F20001A1
:1023300000200870FFF70CFF43F28960C0F6000030
:10234000FFF7DCFDFFE700F021F98DED030A9DEDBD
:10235000030A40F20400C2F2000090ED001A30EED1
:10236000410AB0EEC00AB6EE001AB4EE410AF1EE30
:1023700010FA1CDBFFE7039801F046F841EC100B64
:1023800053EC102B40F27810C2F20000019043F29F
:102390006C61C0F60001FDF7F9FF0198FFF7AEFD93
:1023A000039840F20401C2F200010860FFE740F226
:1023B0007000C2F200000068B8BBFFE740F26B009B
:1023C000C2F20000007898B9FFE79DED030AB3EE72
:1023D0000C1AB4EE410AF1EE10FA09DBFFE743F202
:1023E0009760C0F60000FFF789FDFFF7B7FE1BE01E
:1023F00040F26B00C2F200000078012813D1FFE721
:102400009DED030AB3EE091AB4EE410AF1EE10FA9B
:1024100009DCFFE743F2B460C0F60000FFF76EFD91
:10242000FFF78AFEFFE7FFE7FFE7FFE71198B0F548
:102430007A7F05D3FFE700201190FFF79DFAFFE7B1
:102440000120FFF747FE12980130129011980130D9
:102450001190F8E600BF00BF00000000000000007F
:102460009A9999999999E93F81B08DF803008DF86F
:1024700002109DF802109DF8030000F03F0040EAB2
:10248000C1108DF801009DF80100000201B07047F5
:1024900040F26C00C2F20000007842F27821C2F2F1
:1024A00000010978401AB0FA80F040097047000036
:1024B00040F26C00C2F20000017840F27820C2F2D3
:1024C000000000EB0120704780B582B040F26C0044
:1024D000C2F200000090017840F27820C2F20000C1
:1024E00000EB0120FDF768FF0099ADF806000878C1
:1024F000013000F01F000870BDF8060002B080BD7A
:1025000080B584B003900398FDF756FFADF80A003C
:10251000BDF80A00B0F5807F04DBFFE7FF20ADF8CF
:102520000A00FFE742F27820C2F200000090017832
:1025300040F27820C2F2000000EB012001900198E7
:102540000399BDF80A20FDF756FF0098019ABDF8DF
:102550000A300021D1540178013101F01F010170CE
:10256000007840F26C01C2F20001097888420AD179
:10257000FFE740F26C01C2F200010878013000F080
:102580001F000870FFE704B080BD000080B582B076
:1025900045F20040C4F2000090210DF10702012332
:1025A000FFF722F99DF9070000EE100AB8EEC00A05
:1025B00002B080BD0000000080B58EB00D900C917F
:1025C0000B924FF2E420C3F66F70099047F2DE10D1
:1025D000C8F68A6008903320FFF73EFD0190322054
:1025E000FFF73AFD019940EA0120ADF81E003520C1
:1025F000FFF732FD02903420FFF72EFD029940EAEA
:102600000120ADF81C003720FFF726FD039036208F
:10261000FFF722FD039940EA0120ADF81A00BDF949
:102620001E0000F063FD41EC100B51EC100B9FED10
:10263000180B53EC102B0593049200F0E7FD41ECCE
:10264000100B0D9880ED000BBDF91C0000F04EFD45
:10265000049A059B41EC100B51EC100B00F0D6FDD9
:1026600041EC100B0C9880ED000BBDF91A0000F046
:102670003DFD049A059B41EC100B51EC100B00F052
:10268000C5FD41EC100B0B9880ED000B0EB080BD2A
:10269000DE718A8EE4F26F3F40F26A00C2F20000FF
:1026A00090F9000008B9FFE71FE040F27402C2F29F
:1026B0000002107840F26A01C2F200010978084471
:1026C000083000F00700107040F61401C4F6000155
:1026D000086820F45870137843F25C62C0F6000278
:1026E00032F8132010430860FFE7704780B584B0CC
:1026F0008DF80F0040F27600C2F200000088FE283C
:102700000FDCFFE79DF80F0040F27603C2F20003F2
:102710001A88511C198040F27801C2F200018854D5
:10272000FFE79DF80F000A2817D1FFE740F2760176
:10273000C2F2000101910A8840F27800C2F2000062
:1027400013180022029203F8012C09880139FFF7BF
:102750005FFB019902980880FFE704B080BD00008C
:1027600081B08DF803009DF8031040F26A00C2F2B8
:102770000000017090F9000048B9FFE740F614012D
:10278000C4F60001086820F45870086014E040F6B0
:102790001401C4F60001086820F4587040F2740275
:1027A000C2F20002137843F25C62C0F6000232F813
:1027B000132010430860FFE701B0704781B000901C
:1027C000009900200860009942F28D00C8600099CD
:1027D000886840F0800088600099086840F06D00CB
:1027E000086001B07047000080B582B00190019888
:1027F000C0698006002806D5FFE70198808CC0B22A
:10280000FFF774FFFFE70198C069400600280FD565
:10281000FFE701994020086242F28020C2F20000E6
:102820000168086820F001000860FFF7B5FCFFE7C9
:1028300002B080BD5FEA400C08BF91F0000F4FEA84
:102840008C234FEAC12243EA51514FEA1C5018BF72
:1028500000F5F0404FEA300018BF41F000415FEA58
:102860006C5C00F02980BCF1FF3F08BF40F0804065
:102870007047130C06BF12044FF0100C4FF0000C01
:10288000130E04BF12020CF1080C130F04BF120147
:102890000CF1040C930F04BF92000CF1020CD30F47
:1028A00004BF52000CF1010C11464FF00002A0F1E0
:1028B0001F00A0EB0C00704711F0004F08BF7047DD
:1028C00031F000413FF4D5AF0B0C06BF09044FF0C7
:1028D000100C4FF0000C0B0E04BF09020CF1080C99
:1028E0000B0F04BF09010CF1040C8B0F04BF89000E
:1028F0000CF1020CCB0F04BF49000CF1010CCCF120
:10290000200322FA03F341EA030102FA0CF2A0EBDE
:102910000C0000F10100704723F07F4720F07F4C4E
:1029200080EA030000F00040ACEB070303F57C53A2
:1029300003F1FF032DE9804909B44FEA144324EA67
:1029400003484FEA154B25EA0B4E0FF2042606EB1F
:1029500013273E7803FB0667C7F5000707FB06F65B
:102960004FEAD64606F102064FEA543707FB066CDB
:10297000CCF1005C4FEA1C472CEA074C0CFB06F537
:1029800007FB06F404EB15464FEA961649085FEA82
:10299000320234BF00204FF000404FEAD13706FB2F
:1029A00007FC4FEA1C4C0CFB0BF7D21B03FB0CF78C
:1029B00061EB07010CFB0EF7B0EB074072EB17421F
:1029C0000CFB08F734BFA2EB0742B2EB074261EB06
:1029D00017414FEA0C444FEA910706FB07FC4FEA08
:1029E0001C4C0CFB0BF7B0EBC74072EB573203FBF0
:1029F0000CF734BFA2EBC742B2EBC74261EB5731D1
:102A00000CFB0EF7B0EBC70072EB57720CFB08F72C
:102A100034BFA2EBC702B2EBC70261EB57714FEABA
:102A2000816141EA92114FEA826242EA90124FEAD2
:102A3000806004EBCC04039F4FEAD13706FB07FC10
:102A40004FEA1C4C0CFB0BF7D21B03FB0CF761EBA2
:102A500007010CFB0EF7B0EB074072EB17420CFBC3
:102A600008F734BFA2EB0742B2EB074261EB174114
:102A70004FEA8C5504EB9C244FEA910706FB07FCB8
:102A80004FEA1C4C0CFB0BF7B0EBC74072EB573214
:102A900003FB0CF734BFA2EBC742B2EBC74261EBBA
:102AA00057310CFB0EF7B0EBC70072EB57720CFB03
:102AB00008F734BFA2EBC702B2EBC70261EB577154
:102AC0004FEA816141EA92114FEA826242EA901232
:102AD0004FEA806015EB4C2544F100044FEAD137F2
:102AE00006FB07FC4FEA1C4C0CFB0BF7D21B03FB4D
:102AF0000CF761EB07010CFB0EF7B0EB074072EB34
:102B000017420CFB08F734BFA2EB0742B2EB0742B7
:102B100061EB17414FEA813141EA92414FEA82323B
:102B200042EA90424FEA80304FEA0C7615EB1C15D2
:102B300044F1000448EA03434EEA0B484FF0000E0C
:102B4000B2EB080C71EB030724BF624639464EEB2B
:102B50000E0E4FF0000B0018524149414BEB0B0B8E
:102B6000B2EB080C71EB03077BF1000B24BF62464C
:102B700039464EEB0E0E4FF0000B00185241494102
:102B80004BEB0B0BB2EB080C71EB03077BF1000B6B
:102B900024BF624639464EEB0E0E51EA020718BFBB
:102BA00046F0010616EB0E7655F1000254F10001D5
:102BB00003D5BDE88901BDE80088BDE88901BDE80D
:102BC0000048B619524141EB0101A3F101037047DE
:102BD00080807F7E7D7C7B7A79787776767574735A
:102BE000727171706F6E6E6D6C6C6B6A6A69686819
:102BF000676666656464636362616160605F5F5EAF
:102C00005E5D5D5C5C5B5B5A5A5959585857575624
:102C10005655555554545353525252515150505089
:102C20004F4F4F4E4E4D4D4D4C4C4C4B4B4B4A4ADB
:102C30004A4949494848484747474746464645451F
:102C40004544444444434343434242424241414158
:102C50009C46002B30D477002BD04FEA37071CB5A9
:102C600003B44FF010004FF01001BAF1000F06D07E
:102C7000BCF1000FDCBF40F0080040F008014FF04D
:102C800000000FBCBDE810400BF1010BBBF1010FC0
:102C900008BF5FEA170722BF12F1010211F101011B
:102CA0004FF0004143F1000300F0004043EA000010
:102CB0007047F9D35708D0E746EA06464FEA16466A
:102CC00013F1400F1FDD13F1200FDFBF16430A463B
:102CD000002120335B42BED0C3F1200746EA0646FE
:102CE0004FEA164602FA07F746EA070622FA03F207
:102CF000C3F1200701FA07F742EA070221FA03F1BC
:102D00004FF00003A7E746EA020646EA06464FEA06
:102D1000164646EA0106BCBF46EA0646360C4FF0A8
:102D200000034FF000024FF0000194E72DE9804CC2
:102D300070B49A46934691E8380007C831EA400CCF
:102D400048BF34EA430C03D5FFF7E6FDFFF780FFE9
:102D5000F0BCBDE8008C2DE9804C70B49A469346D7
:102D600091E8380007C810F0804F08BF13F0804F7B
:102D700003D100F005F8FFF76BFFF0BCBDE8008C55
:102D800020F07F4723F07F4C80EA030000F00040F2
:102D900007EB0C03A3F57C53A3F1FE0392F0000FA5
:102DA00000F0B38095F0000F00F077802DE9014925
:102DB0004FEA114021EA00484FEA144624EA064748
:102DC00000FB06FC08FB06F607FB08F818EB0648B4
:102DD0004CEB164C00FB07F718EB07484CEB174081
:102DE0004FEA124B22EA0B4E4FEA154625EA0647F8
:102DF0000BFB06FC0EFB06F607FB0EFE1EEB064E5B
:102E00004CEB164C0BFB07F71EEB074E4CEB174B2E
:102E100018EB0B0840F1000018EB0E0B58EB000804
:102E200040F100008F1A4FF000014FF000063CBF48
:102E3000C943661B14BFB5EB040C00213CBFC9435A
:102E4000F61B4FEA174427EA04454FEA1C472CEAD1
:102E5000074C04FB076205FB07F70CFB05F616EBB6
:102E6000074642EB174204FB0CFC16EB0C4642EB08
:102E70001C421BEB060658EB020241414EEA8E0E45
:102E800046EA9E0601D5BDE80189B619524141EBDB
:102E90000101A3F10103BDE801894FEA144524EAC9
:102EA00005464FEA114721EA074C05FB07F406FBEC
:102EB00007F70CFB06F111EB074144EB174405FB48
:102EC0000CFC11EB0C4144EB1C444FEA124722EA84
:102ED000074C05FB07F206FB07F70CFB06F616EBA3
:102EE000074642EB174205FB0CFC16EB0C4642EB87
:102EF0001C456A1854F1000148BF7047B619524189
:102F000041EB0101A3F10103704795F0000F37D0A9
:102F10004FEA114221EA02464FEA144724EA074CDD
:102F200002FB07F106FB07F70CFB06F414EB074462
:102F300041EB174102FB0CFC14EB0C4441EB1C4130
:102F40004FEA154725EA074C02FB07F506FB07F792
:102F50000CFB06F616EB074645EB174502FB0CFC8F
:102F600016EB0C4645EB1C42121951F1000148BF0B
:102F70007047B619524141EB0101A3F101037047BB
:102F80004FEA144524EA05464FEA114721EA074C67
:102F900005FB07F106FB07F70CFB06F212EB0742F5
:102FA00041EB174105FB0CFC12EB0C4251EB1C41B1
:102FB0004FF0000648BF7047921841EB0101A3F1A2
:102FC0000103704703B401984100009850EAC12002
:102FD00018BF04204A0D18BF40F0010040F2FF72F4
:102FE000B2EB515F08BF40F00200012808BF052086
:102FF00002B0704730380A2801D201207047002003
:103000007047000010B500290AD00878002807D0C2
:1030100005487844FDF734FA002801D0002010BD9F
:103020000248784410BD00006E07000066070000EB
:1030300010B500290AD00878002807D00548784440
:10304000FDF71EFA002801D0002010BD0248784488
:1030500010BD00005E07000056070000491058BF71
:10306000C1F140415B1058BFC3F140438B42EFF3C5
:103070000080704751EA030C17D41CF5801F58BF1D
:10308000BCF5801F00F10680994218BF704708BF49
:103090009042704707D711F5801F58BF13F5801F66
:1030A00019D499427047894270471CF5801F08D592
:1030B000BCF5801FF7D58B4218BF704708BF82420E
:1030C00070474FF4001C1CEB410F38BF1CEB430F43
:1030D00001D28B42704770B500F042F9922449004A
:1030E0004FF000514FF08053FFF7B8BF10F000428F
:1030F00048BF4042B0FA80F310FA03F10AD0C3F19E
:103100001D0303F5806302EB03524FEA415002EBCB
:10311000D12170474FF000007047000051EA030CC6
:1031200017D41CF5801F58BFBCF5801F00F1068026
:10313000994218BF704708BF9042704707D711F5F2
:10314000801F58BF13F5801F19D4994270478942D8
:1031500070471CF5801F08D5BCF5801FF7D58B4242
:1031600018BF704708BF824270474FF4001C1CEB29
:10317000410F38BF1CEB430F01D28B42704770B533
:1031800000F0EEF8922449004FF080514FF00053C8
:10319000FFF764BF51EA030C17D41CF5801F58BF1A
:1031A000BCF5801F00F10680994218BF704708BF28
:1031B0009042704707D711F5801F58BF13F5801F45
:1031C00019D499427047894270471CF5801F08D571
:1031D000BCF5801FF7D58B4218BF704708BF8242ED
:1031E00070474FF4001C1CEB410F38BF1CEB430F22
:1031F00001D28B42704770B500F0B2F892244900BA
:103200004FF000514FF08053FFF728BF70B5DFF843
:1032100048C11CEA111E1EBF1CEA13159EEA0C0FC2
:1032200095EA0C0F00F06F8081EA03044EEAD47E29
:10323000AE4421EA4C1123EA4C1341F4801143F4CB
:103240008013AEF17F7EA1FB024CA0FB0365361913
:1032500055EB0C05A1FB034C4CF10003A0FB021C39
:1032600016EB0C06654153F10003094218BF46F006
:10327000010613F4007F0BD14FEA03314FEA05300A
:1032800041EA155140EA165034036FF003020AE098
:103290004FEAC3214FEAC52041EA555140EA565052
:1032A000F4026FF0020202EB2E4201EB025585EAB6
:1032B000CE710AD05FEA440C18BF24F0004450F1EC
:1032C000000041F1000120EAD47040F2FE7C62452A
:1032D00000D270BDA84214BF4FF080444FF040446C
:1032E000002E08BF0024BEF1806FA8BFA1F1C0412D
:1032F000BDE8704080F2828001F1C04101F00041E0
:103300004FF0000070470CEA13159EEA0C0F18BF2F
:1033100095EA0C0F06D081EA030E4FF000000EF084
:10332000004170BD00F01CF88900013E00F007B8B4
:1033300000F009B84FEA430C5FEA5C5C08D081EA10
:10334000030100F05BB84FEA410C5FEA5C5CF6D128
:1033500002494FF0000070470000FF070000F87FAF
:103360000EF1020E2EF0030E5EF8046B364205D409
:10337000012A43EB030515F5001F12D8012841EB84
:10338000010C1CF5001F0CD80ED14FEAD17C0CEBC0
:103390004C0C0CF1020C15F5001F08BF4CEBD37C54
:1033A00004E04FF0080C01E04FEAD37C0CEB4C0535
:1033B00026FA05F606F00706B6F1040C06D20EEB67
:1033C000860CBDE870404CF0010C6047DFE80CF063
:1033D000090B02024FF00041A1F500214FF000005F
:1033E00070BD19461046012851EB010418BFD4F5F1
:1033F000001484BF002001F0004170BD0808A0F552
:1034000000114FEA3101704743004FEAD30C4FEAF5
:103410003C0C43401FBF40070CF1605113F0FE4FBE
:1034200070471CF0006F03D10CF000410020704782
:103430000CF0004343EA507040EACC0010B500F0B5
:1034400038F800BF000000924FEA0001FFF7D6BF36
:103450004FF00041A1F500214FF00000704710B57A
:10346000FFF708FE0CBF0120002010BD10B5FFF7CC
:1034700001FE14BF0120002010BD10B5FFF74EFE65
:103480008CBF0120002010BD10B5FFF747FE2CBFF8
:103490000120002010BD10B5FFF77CFE94BF012075
:1034A000002010BD10B5FFF775FE34BF01200020CD
:1034B00010BD0EF1020E2EF0030E5EF8044B2442F6
:1034C00004D44FEA4102B2F17F4F11D84FEA4003D2
:1034D000B3F17F4F0CD80ED14FEAD07C0CEB4C0CE3
:1034E0000CF1020CB2F17F4F08BF4CEBD17C04E031
:1034F0004FF0080C01E04FEAD17C0CEB4C0324FAAE
:1035000003F404F00704B4F1040C06D20EEB840CAF
:10351000BDE810404CF0010C6047DFE80CF00708F4
:1035200002024FF00040A0F5800010BD08464200A6
:1035300018BFD2F1807288BF00F0004010BDF1EEDC
:10354000100A4FF6FF71C0F2C03120EA010040F0CE
:103550004070E1EE100A7047FDF735BCFDF76CBD19
:1035600000000000000000003031323334353637BF
:1035700038394142434445464030580030313233B7
:1035800034353637383961626364656640307800B7
:10359000040000080000000000000002000100001C
:1035A000103031323334353637383961626364650F
:1035B000667870003031323334353637383941422D
:1035C000434445465850000002400000000000A05F
:1035D0000000000005400000000000C800000000DE
:1035E0000C4000000000409C00000000194000005A
:1035F0000020BCBE0000000034400000BFC91B8E8C
:1036000000000004B5400000504BCFD06607E2CF69
:10361000010000006C4100003E8251AADFEEA73499
:1036200001000000D9420000DCB5A0E23A301F974B
:10363000FFFFFFFFB4450000FD25A0C8E9A3C14F6F
:10364000FFFFFFFFFF3F00000000008000000000C0
:10365000FF3F00000000008000000000200020026A
:1036600000024002400040010001200154656D70DD
:10367000203D20252E3166430D0A00446F6F7220D5
:103680006F70656E65640D0A00446F6F7220636C25
:103690006F7365640D0A0054656D706572617475B1
:1036A00072652068696768202D206F70656E696E8D
:1036B000670D0A0054656D706572617475726520DE
:1036C0006C6F77202D20636C6F73696E670D0A0035
:1036D000436F6E736F6C653A2073746F700D0A00E0
:1036E000436F6D6D616E64733A206F70656E7C63BD
:1036F0006C6F73657C73746F700D0A00436F6E732B
:103700006F6C653A206F70656E696E6720646F6FCD
:10371000720D0A00436F6E736F6C653A20636C6FB5
:1037200073696E6720646F6F720D0A004761726182
:1037300067652D646F6F72206669726D776172655F
:103740002072656164790D0A006300636C6F7365B4
:10375000006F70656E006F0073746F70007300000F
:10376000B03800080000002008000000EC0100084C
:10377000B838000808000020802800000C0200086B
:103780001C00000043000000F8FFFFFF0C000000D9
:103790000E0000000F0000002E00000010010000CD
:1037A00043000000F8FFFFFF004040404040404021
:1037B0004040414141414140404040404040404004
:1037C00040404040404040404005020202020202A8
:1037D00002020202020202020220202020202020F7
:1037E000202020020202020202029090909090900B
:1037F00010101010101010101010101010101010C9
:10380000101010100202020202028888888888883C
:103810000808080808080808080808080808080828
:103820000808080802020202400000000000000030
:103830000000000000000000000000000000000088
:103840000000000000000000000000000000000078
:103850000000000000000000000000000000000068
:103860000000000000000000000000000000000058
:103870000000000000000000000000000000000048
:103880000000000000000000000000000000000038
:103890000000000000000000000000000000000028
:1038A0000000000000000000000000000000000018
:0838B0007802002000007AC438
:040000050800018965
:00000001FF
