:020000040800F2
:10000000680600203902000877020008790200081B
:100010007B0200087D0200087F020008000000004B
:100020000000000000000000000000008102000845
:100030008302000800000000850200088702000813
:100040008902000889020008890200088902000864
:100050008902000889020008890200088902000854
:100060008902000889020008890200088902000844
:100070008902000889020008890200088902000834
:100080008902000889020008890200088902000824
:100090008902000889020008890200088902000814
:1000A0008902000889020008890200088902000804
:1000B00089020008890200088902000889020008F4
:1000C00089020008890200088902000889020008E4
:1000D00089020008890200088902000889020008D4
:1000E00089020008890200088902000889020008C4
:1000F00089020008890200088902000889020008B4
:1001000089020008890200088902000889020008A3
:100110008902000889020008890200088902000893
:100120008902000889020008890200088902000883
:100130008902000889020008890200088902000873
:100140008902000889020008890200088902000863
:100150008902000889020008890200088902000853
:100160008902000889020008890200088902000843
:1001700089020008890200088902000800000000C6
:10018000890200088902000800F002F800F044F833
:1001900014A696E8000CB244B344DA4501D100F04D
:1001A0003BF8BAE80F000FA696E83000A5EB04056F
:1001B00004EB0607AAEB0704A7F101074FEA1515A0
:1001C0004FEA3414A4F10104AC4201D300F024F846
:1001D00013F0010F18BFFB1A43F0010300F001F800
:1001E000DBE71847D8040000E8040000704700006F
:1001F0000023002400250026103A28BF78C1FBD830
:10020000520728BF30C148BF0B6070471FB500F0D0
:1002100047FA1FBD10B510BD00F057F81146FFF7A3
:10022000F5FF00F001FA00F075F803B4FFF7F2FFF4
:1002300003BC00F07DF8000017481849184B99429C
:100240003CBF50F8042B41F8042BF8D3154B16494A
:100250004FF000028B4238BF43F8042BFAD3DFF88B
:100260004C00016841F470010160BFF34F8FBFF390
:100270006F8F0F480047FEE7FEE7FEE7FEE7FEE769
:10028000FEE7FEE7FEE7FEE7FEE7000009480A4951
:100290000A4A0B4B70470000CC0600080000002003
:1002A00000000020000000206806002088ED00E02B
:1002B000890100086800002068060020680200200C
:1002C00068020020704770477047754600F02CF8B0
:1002D000AE4605006946534620F00700854618B033
:1002E00020B5FFF7D3FFBDE820404FF000064FF0E8
:1002F00000074FF000084FF0000BAC46ACE8C00917
:10030000ACE8C009ACE8C009ACE8C00921F00701BD
:100310008D46704710B50446AFF300802046BDE817
:100320001040FFF782BF0000004870470000002027
:1003300001491820ABBEFEE726000200704700000E
:100340000421C4F20101086840F48070086040F2A2
:100350000831C5F2040108684FF6E072CFF6C072AA
:1003600010400860086840F4820008607047000090
:1003700080B541F24C01C4F20201086840F400501B
:10038000086041F22C01C4F20201086840F40050F8
:100390000860086820F40050086000F057F8FFF784
:1003A000CFFF00F075F80820C5F204000068C00710
:1003B00088B1FFE70821C5F20401086840F0020097
:1003C0000860FFE70820C5F204000068C00708B114
:1003D000FFE7F7E7FFE70C21C5F20401086820F00A
:1003E000380008603022C5F20402106840F2CF7372
:1003F00098431060106840F4C0701060B022C5F2DD
:100400000402106820F0400010601422C5F20402BB
:10041000106820F4E0101060106840F44020106074
:10042000086820F4305008600821C5F2040108680B
:1004300040F001000860FFE70020C5F204000068FA
:10044000C00708B9FFE7F7E780BD000041F24C01A3
:10045000C4F20201086840F0010008604FF09041CA
:10046000086820F00C000860086840F00C00086084
:100470000C21C4F60001086820F00C0008602C2153
:10048000C4F60001086840F00200086070470000F0
:1004900081B00820C5F2040000688000002808D55B
:1004A000FFE70821C5F20401086820F00050086049
:1004B000FFE70821C5F20401086840F08050086099
:1004C0004FF4C8600090FFE7009820B1FFE7009864
:1004D00001380090F8E701B07047000041F24C018C
:1004E000C4F20201086840F0010008604FF090413A
:1004F000086820F440600860086840F40060086004
:100500000821C4F60001086840F4406008600C212E
:10051000C4F60001086820F4406008602021C4F699
:100520000001086820F470000860086840F480103A
:100530000860704741F20001C4F20201086840F00F
:1005400001000860FFE741F20000C4F20200006809
:100550008007002801D4FFE7F5E741F20001C4F26B
:100560000201086820F0F0000860086840F05000C0
:100570000860086840F00800086041F20801C4F211
:100580000201086820F00300086008680860FFE7BF
:1005900041F20800C4F20200006810F00C0F01D014
:1005A000FFE7F5E77047000041F25801C4F202018D
:1005B000086840F0010008602821C4F2000103200F
:1005C00008602C21C4F2000140F6FF70086034215D
:1005D000C4F20001002008601821C4F2000108687C
:1005E00020F070000860086840F068000860202172
:1005F000C4F20001086820F00A000860086840F0B2
:10060000010008604FF08041086840F080000860F9
:100610001422C4F20002106840F001001060086863
:1006200040F001000860704780B582B00020019062
:10063000FFF780FFFFF79CFEFFF750FFFFF7B4FFC7
:10064000FFE70821C5F20401086840F004000860D3
:10065000FFE70020C5F2040000684007002801D42D
:10066000FFE7F6E74020C5F20400016840F26000B1
:10067000C2F20000016000684FF47A71414340F219
:100680000110C0F21000A1FB0020091A00EB51007C
:10069000C00A009000983421C4F200010860D0E73D
:1006A000F1EE100A4FF6FF71C0F2C03120EA0100EE
:1006B00040F04070E1EE100A70470000CC060008E0
:0C06C0000000002068060000F0010008A7
:040000050800018965
:00000001FF
